:020000040800F2
:100000005033002075020008591C00084B1A0008E4
:10001000551C0008270900086D1F0008000000009B
:10002000000000000000000000000000DD010008EA
:100030002B0900080000000021020008851C0008B0
:100040008F0200088F0200088F0200088F0200084C
:100050008F0200088F0200088F0200088F0200083C
:100060008F0200088F0200088F0200088F0200082C
:100070008F0200088F0200088F0200088F0200081C
:100080008F0200088F0200088F0200088F0200080C
:100090008F0200088F0200088F0200088F020008FC
:1000A0008F0200088F0200088F0200088F020008EC
:1000B0008F0200088F0200088F0200088F020008DC
:1000C0008F0200088F0200088F0200088F020008CC
:1000D0008F0200085D1F00088F0200088F020008D1
:1000E0008F0200088F0200088F0200088F020008AC
:1000F0008F0200088F0200088F0200088F0200089C
:100100008F0200088F0200088F0200088F0200088B
:100110008F0200088F0200088F0200088F0200087B
:100120008F0200088F0200088F0200088F0200086B
:1001300000F002F800F042F80AA090E8000C8244B7
:100140008344AAF10107DA4501D100F037F8AFF294
:10015000090EBAE80F0013F0010F18BFFB1A43F0A5
:10016000010318477446000094460000103A24BF6B
:1001700078C878C1FAD8520724BF30C830C144BF0C
:1001800004680C607047000000230024002500264E
:10019000103A28BF78C1FBD8520728BF30C148BFEA
:1001A0000B607047642900F0BD80732900F0E28283
:1001B000002070471FB51FBD10B510BD00F0F4FA48
:1001C0001146FFF7F7FF01F02FFF00F012FB03B419
:1001D000FFF7F2FF03BC01F0EEFE0000224B1968AE
:1001E0000868B0E8F00F80F30988BFF36F8F4FF015
:1001F000000080F311884EF00D0E704700000000E3
:1002000006480068006880F3088862B661B6BFF3EC
:100210004F8FBFF36F8F00DF00BF00BF08ED00E01E
:10022000EFF30980BFF36F8F0F4B1A6820E9F00FCF
:10023000106008B54FF0500080F31188BFF34F8F66
:10024000BFF36F8F03F05EFB4FF0000080F3118867
:10025000BDE8084019680868B0E8F00F80F3098825
:10026000BFF36F8F704700BF10000020EFF30580D1
:10027000704700000948804709480047FEE7FEE74D
:10028000FEE7FEE7FEE7FEE7FEE7FEE7FEE7FEE746
:1002900004480549054A064B70470000991C0008B0
:1002A00031010008502D002050330020502F002035
:1002B000502F0020704700000FB4044910B503AA66
:1002C000029800F05BFA10BC5DF814FB8800002077
:1002D00070B50C460546012A05D02878800600D561
:1002E000EA69002302E0012305E05B1C934202D28D
:1002F000E05C0028F9D1A869E618C01AA861286A4C
:10030000184428622846AFF3008004E0D5E90121B3
:1003100014F8010B9047B442F8D32846AFF300809D
:1003200070BD00002DE9F0410646002410687529D3
:10033000314616A510D0AFF30080002802DA404203
:1003400013A507E031688A0701D512A502E0490725
:1003500004D511A5012401E0AFF3008000210A2299
:1003600006F1240709E0B0FBF2FCB0FBF2F302FB5C
:100370001C00303078541846491C0028F3D123461D
:100380002A463046BDE8F04100F070B90000000098
:100390002D0000002B000000200000002DE9F05F80
:1003A000894604464FF0000ADFF824B1FB44C0F848
:1003B00020A02046E168884700287DD0252806D067
:1003C000D4E901219047206A401C2062F1E7002512
:1003D0005F462046E16888472028064607DB312E25
:1003E00005D2B81910F8200C08B10543F1E7A807A9
:1003F00001D525F00405C4F81CA00027C4F818A0F6
:100400002A2E09D0304601F0CFFD38B304EB87081F
:10041000303EC8F8186019E059F8041B204604EB78
:1004200087029161E1688847012F064618D1E0698B
:10043000002820DA25F020051DE0D8F8180000EB90
:10044000800006EB40003038C8F818002046E1680C
:100450008847064601F0A8FD0028EED1012F0AD0FA
:100460002E2E08D12046E16888477F1C0646022FC1
:1004700045F02005C4DBA069002803DA404245F0BE
:100480000105A061E80701D025F01005A6B1A6F18D
:100490004100192802D8203645F400654A46314605
:1004A000204625604D46FFF77DFE60B1012807D04C
:1004B000ED1D25F0070000E007E000F1080978E7EE
:1004C00005F1040975E730467AE7206ABDE8F09F38
:1004D00014440000032A40F2308010F0030C00F0B6
:1004E000158011F8013BBCF1020F624498BF11F86E
:1004F00001CB00F8013B38BF11F8013BA2F1040227
:1005000098BF00F801CB38BF00F8013B11F003039E
:1005100000F02580083AC0F0088051F8043B083A02
:1005200051F804CBA0E80810F5E7121D5CBF51F8A4
:10053000043B40F8043BAFF30080D20724BF11F81E
:10054000013B11F801CB48BF11F8012B24BF00F883
:10055000013B00F801CB48BF00F8012B704710B5F4
:10056000203AC0F00B80B1E81850203AA0E81850AB
:10057000B1E81850A0E81850BFF4F5AF5FEA027C6C
:1005800024BFB1E81850A0E8185044BF18C918C0DB
:10059000BDE810405FEA827C24BF51F8043B40F87C
:1005A000043B08BF7047D20728BF31F8023B48BF61
:1005B00011F8012B28BF20F8023B48BF00F8012B9F
:1005C000704702F0FF0343EA032242EA024200F0CE
:1005D00002B84FF000020429C0F0128010F0030CA2
:1005E00000F01B80CCF1040CBCF1020F18BF00F826
:1005F000012BA8BF20F8022BA1EB0C0100F00DB8D5
:100600005FEAC17C24BF00F8012B00F8012B48BF32
:1006100000F8012B70474FF0000200B513469446D6
:100620009646203922BFA0E80C50A0E80C50B1F14A
:100630002001BFF4F7AF090728BFA0E80C5048BF5E
:100640000CC05DF804EB890028BF40F8042B08BFFC
:10065000704748BF20F8022B11F0804F18BF00F8F8
:10066000012B704770477047704770472DE9F0477E
:100670000D4699469246044600F124080168880612
:1006800004D5E06921F01001216000E00120A842BA
:1006900001DD471B00E00027A1697A1902EB090080
:1006A000081AA0612078C00602D42046AFF300806B
:1006B000002608E0D4E901211AF806009047206AD4
:1006C000401C761C20624E45F4DB2078C0060AD51B
:1006D0002046AFF3008006E0D4E9012130209047A6
:1006E000206A401C2062381EA7F10107F4DC07E0F5
:1006F000D4E9012118F805009047206A401C2062C7
:10070000281EA5F10105F3DC2046AFF30080207818
:10071000000602D50220BDE8F0870120FBE70000BB
:1007200001694A1C02610878704700B58FB0CDE9B5
:1007300001310021059105497944CDE903101146A5
:100740006846FFF72BFE0FB000BD0000E5FFFFFF7E
:1007500010B5436913B1AFF3008001E0FFF7B8FDB6
:10076000012010BD127800F124010A7000224A70A5
:100770000122EDE711684FF0FF32E9E7074B70B552
:100780000D467B44FFF7D1FF0446284600F008F8E9
:1007900010B14FF0FF3070BD204670BD87180000CB
:1007A000007B00F080007047754600F02BF8AE46E5
:1007B00005006946534620F00700854618B020B56D
:1007C000FFF766FDBDE820404FF000064FF0000740
:1007D0004FF000084FF0000B21F00701AC46ACE8E9
:1007E000C009ACE8C009ACE8C009ACE8C0098D4656
:1007F000704710B50446AFF300802046BDE81040B6
:10080000FFF7E5BC00487047F02C00201CB5012420
:1008100002F0D2FB1348022100230A02CDE90010A6
:1008200011A1144803F0B0FC0446012C02D112A01F
:10083000FFF742FD1748032100234FF40072CDE972
:10084000001015A1174803F09FFC0446012C02D1AB
:1008500015A0FFF731FD1A48006802F077FD02F09D
:10086000F3FB1CBD04000020546573745F54617376
:100870006B0000009D1C0008B4B4BDA854657374DF
:100880005F5461736BC8CECEF1B3C9B9A6210D0A0E
:1008900000000000080000204B45595F5461736B55
:1008A00000000000511A0008B4B4BDA84B45595FC0
:1008B0005461736BC8CECEF1B3C9B9A6210D0A003D
:1008C0000000002000B585B000BF0F48806940F0EF
:1008D00010000D4988610846806900F01000009002
:1008E00000BF00BF0120019002900220039003206E
:1008F000049001A9054800F0EDF800220121034809
:1009000000F090FA05B000BD001002400010014058
:1009100010B5032000F028FB01F04CF9FFF7D2FFDF
:1009200001F0FEF810BD00BFFEE7704770B5044649
:10093000002594F82100022803D00420A06301259B
:10094000C1E02068006820F00E002168086020687F
:10095000006820F00100216808605C492068884236
:1009600052D95A4978392068884201D1012047E09C
:10097000564964392068884201D1102040E053492B
:1009800050392068884201D1801539E04F493C39FF
:100990002068884201D1801432E04C49283920680F
:1009A000884202D14FF480302AE048491439206847
:1009B000884202D14FF4801022E0444920688842E6
:1009C00001D140041CE042492068884201D1012045
:1009D00016E03F4914312068884201D110200FE011
:1009E0003B4928312068884201D1801508E0384908
:1009F0003C312068884201D1801401E04FF48030FE
:100A00003349091F086051E030497839206888422D
:100A100001D1012047E02D4964392068884201D185
:100A2000102040E0294950392068884201D18015C2
:100A300039E026493C392068884201D1801432E0EF
:100A4000224928392068884202D14FF480302AE0B8
:100A50001E4914392068884202D14FF4801022E0E8
:100A60001A492068884201D140041CE018492068D6
:100A7000884201D1012016E01549143120688842CE
:100A800001D110200FE0124928312068884201D19D
:100A9000801508E00E493C312068884201D180145D
:100AA00001E04FF48030094980394860012084F822
:100AB000210000BF002084F8200000BF606B10B14F
:100AC0002046616B8847284670BD000080000240C8
:100AD000080402402DE9F847024600239C467BE1CA
:100AE0004FF0010808FA03F4D1F8008008EA040086
:100AF000A0427DD1DFF8F4A2D1F80480A8EB0A0966
:100B0000D0453AD014DCB8F1030F50D009DCB8F16D
:100B1000000F31D0B8F1010F1CD0B8F1020F49D14C
:100B200020E0B8F1110F18D0B8F1120F42D11EE039
:100B3000B9F5881F25D006DCB9F5803F20D0B9F57E
:100B4000801F37D11AE0B9F5001F18D0B9F5041F7E
:100B500030D117E0D1F80CC02DE0D1F80C8008F1AD
:100B6000040C28E0D1F80C8008F1080C23E0D1F83F
:100B70000C8008F10C0C1EE000BF00BF00BF00BFDE
:100B800000BF00BFD1F80880B8F1000F02D14FF0CC
:100B9000040C0BE0D1F80880B8F1010F03D14FF03D
:100BA000080C146102E04FF0080C546103E04FF0B0
:100BB000000C00E000BF00BFFF2801D8904601E014
:100BC00002F104084646FF2802D84FEA830803E0F2
:100BD000A3F108084FEA88084746D6F800804FF08E
:100BE0000F0909FA07F928EA09080CFA07F900E0E1
:100BF0007AE048EA0908C6F80080D1F8048008F0D5
:100C00008058B8F1805F6FD100BFDFF8E481D8F879
:100C1000188048F00108DFF8D891C9F81880C84654
:100C2000D8F8188008F00108CDF8008000BF00BF98
:100C30004FEAB9384FEA930958F829504FEA8378B8
:100C40004FEA18794FF00F0808FA09F825EA080565
:100C5000DFF8A081424502D14FF0000824E0DFF820
:100C60009881424502D14FF001081DE0DFF88C81E8
:100C7000424502D14FF0020816E0DFF88481424578
:100C800002D14FF003080FE0DFF87881424502D12E
:100C90004FF0040808E0DFF87081424502D14FF0C0
:100CA000050801E04FF006084FEA83794FEA197909
:100CB00008FA09F848EA0505DFF850814FEA930978
:100CC00048F82950D1F8048008F48038B8F5803FFE
:100CD0000BD1DFF83C81D8F8008048EA0008DFF843
:100CE0003091C9F800800AE075E0DFF82481D8F877
:100CF000008028EA0008DFF81891C9F80080D1F8D0
:100D0000048008F40038B8F5003F0ED1DFF8008108
:100D100008F10408D8F8008048EA0008DFF8F090ED
:100D200009F10409C9F800800DE0DFF8E48008F15A
:100D30000408D8F8008028EA0008DFF8D49009F108
:100D40000409C9F80080D1F8048008F48018B8F5C7
:100D5000801F0ED1DFF8B88008F10808D8F80080AD
:100D600048EA0008DFF8A89009F10809C9F80080EE
:100D70000DE0DFF89C8008F10808D8F8008028EA28
:100D80000008DFF88C9009F10809C9F80080D1F853
:100D9000048008F40018B8F5001F0ED1DFF8708049
:100DA00008F10C08D8F8008048EA0008DFF86090E5
:100DB00009F10C09C9F800800DE0DFF8548008F152
:100DC0000C08D8F8008028EA0008DFF8449009F100
:100DD0000C09C9F800805B1CD1F8008028FA03F8E0
:100DE000B8F1000F7FF47CAEBDE8F8870000111069
:100DF0000010024000080140000C014000100140BA
:100E00000014014000180140001C0140080001408E
:100E100000040140024693680B400BB1012000E042
:100E2000002070470AB1016101E00B0403617047C3
:100E300001480068704700009000002003480068E7
:100E40000349097808440149086070479000002070
:100E50009800002010B50848006840F010000649CE
:100E60000860052000F080F80F2000F007F800F07F
:100E70002BF8002010BD00000020024070B5044691
:100E80000E4800784FF47A71B1FBF0F00C49096814
:100E9000B1FBF0F5284600F0F7FB08B1012070BD6A
:100EA000102C07D200222146501E00F01EF80548E3
:100EB000046001E00120F2E70020F0E79800002044
:100EC0000C000020940000207047014608460028CE
:100ED00009DB00F01F0301229A4043099B0003F144
:100EE000E023C3F8002100BF70472DE9F05F804682
:100EF0000D461646002701F03BF8074639462A46BC
:100F0000334601F00700C0F1070ABAF1040F02D915
:100F10004FF0040A01E0C0F1070AD14600F1040ACB
:100F2000BAF1070F02D24FF0000A01E0A0F1030A64
:100F3000D4464FF0010A0AFA09FAAAF1010A0AEAAC
:100F4000020A0AFA0CFA4FF0010B0BFA0CFBABF198
:100F5000010B0BEA030B4AEA0B042146404601F061
:100F60000FF8BDE8F09F000000BF00F00702064B3D
:100F700019684FF6FF031940044B0B4343EA022163
:100F8000014B196000BF70470CED00E00000FA054E
:100F900070B504460D460CB9012070BD5A48006872
:100FA00000F00700A8420ED25748006820F0070062
:100FB0002843554908600846006800F00700A84229
:100FC00001D00120E9E7207800F0020002281DD1BD
:100FD000207800F00400042805D14C48406840F413
:100FE000E0604A494860207800F00800082805D1F0
:100FF0004648406840F4605044494860434840686F
:1010000020F0F000A168084340494860207800F0D3
:10101000010078B36068012806D13C48006800F4FC
:10102000003090B90120B8E76068022806D137483F
:10103000006800F0007040B90120AEE73348006856
:1010400000F0020008B90120A7E73048406820F00E
:101050000300616808432D494860FFF7E9FE064632
:1010600009E0FFF7E5FE801B41F28831884202D992
:10107000032092E707E02548406800F00C00616813
:10108000B0EB810FEDD12048006800F00700A842C6
:101090000ED91D48006820F0070028431A4908604F
:1010A0000846006800F00700A84201D0012074E75C
:1010B000207800F00400042807D11448406820F488
:1010C000E060E168084311494860207800F00800BA
:1010D000082808D10D48406820F46050216940EA92
:1010E000C1000A49486000F03FF808494968C1F367
:1010F0000311074A515CC840064908600648006869
:10110000FFF7BCFE002048E700200240001002402C
:10111000AC4700080C000020940000200148006843
:10112000704700000C00002000B5FFF7F7FF0449EE
:101130004968C1F30221034A515CC84000BD000068
:1011400000100240BC47000800B5FFF7E7FF044964
:101150004968C1F3C221034A515CC84000BD000088
:1011600000100240BC470008F0B585B00FF26C0CCF
:101170009CE8E01001A8A0E8E0101CA52D680095EF
:1011800000210022002300240020194D696801F08D
:101190000C05F5B1042D02D0082D19D101E0154838
:1011A00019E001ADC1F38346AC5D01F4803555B162
:1011B0000F4D6D68C5F340451DF805200D4D654385
:1011C000B5FBF2F302E00C4D04FB05F3184602E018
:1011D00000BF084800BF00BF05B0F0BD0203040512
:1011E000060708090A0B0C0D0E0F10100102000073
:1011F0000010024000127A0000093D00F8B50446D4
:101200000CB90120F8BD207800F00100002878D04A
:10121000F848406800F00C0004280CD0F5484068FD
:1012200000F00C00082811D1F248406800F480302A
:10123000B0F5803F0AD1EF48006800F40030002884
:101240005FD0606800285CD10120DBE700BF6068E8
:10125000B0F5803F06D1E748006840F48030E549AA
:10126000086028E0606858B9E248006820F48030DF
:10127000E04908600846006820F4802008601AE011
:101280006068B0F5A02F0BD1DA48006840F48020E8
:10129000D84908600846006840F4803008600AE0D9
:1012A000D448006820F48030D249086008460068BD
:1012B00020F48020086000BF606888B1FFF7B8FDA7
:1012C000054606E0FFF7B4FD401B642801D9032062
:1012D00098E7C848006800F400300028F2D010E019
:1012E000FFF7A6FD054606E0FFF7A2FD401B6428B8
:1012F00001D9032086E7BF48006800F400300028C9
:10130000F2D1207800F00200022857D1B948406895
:1013100000F00C0050B1B748406800F00C000828FD
:1013200018D1B448406800F4803098B9B1480068DA
:1013300000F0020020B12069012801D0012061E7FE
:10134000AC48006820F0F800616940EAC100A94992
:10135000086033E02069E8B10120A7490860FFF781
:1013600067FD054606E0FFF763FD401B022801D933
:10137000032047E79F48006800F002000028F2D0F1
:101380009C48006820F0F800616940EAC100994972
:10139000086013E0002098490860FFF749FD054602
:1013A00006E0FFF745FD401B022801D9032029E78D
:1013B0009048006800F002000028F2D1207800F088
:1013C000080008282DD1A069B8B101208B49086018
:1013D000FFF72EFD054606E0FFF72AFD401B022819
:1013E00001D903200EE78348406A00F0020000287C
:1013F000F2D0012000F032FC13E000207F490860A9
:10140000FFF716FD054606E0FFF712FD401B022818
:1014100001D90320F6E67748406A00F00200002870
:10142000F2D1207800F00400042873D1002771481D
:10143000C06900F0805070B900BF6E48C06940F0CC
:1014400080506C49C8610846C06900F08050009027
:1014500000BF00BF01276A48006800F48070B0B97F
:101460006748006840F4807065490860FFF7E0FC59
:10147000054606E0FFF7DCFC401B642801D9032089
:10148000C0E65F48006800F480700028F2D000BF1A
:10149000E068012806D15748006A40F0010055492C
:1014A000086227E0E06858B95248006A20F001005D
:1014B000504908620846006A20F00400086219E0FA
:1014C000E06805280BD14B48006A40F00400494908
:1014D00008620846006A40F0010008620AE04548D8
:1014E000006A20F00100434908620846006A20F0C3
:1014F0000400086200BFE068A0B1FFF799FC054650
:1015000009E0FFF795FC401B41F28831884202D97F
:10151000032077E622E03748006A00F00200002846
:10152000EFD012E0FFF784FC054608E0FFF780FCEF
:10153000401B41F28831884201D9032062E62D48E0
:10154000006A00F002000028F0D1012F05D12948DF
:10155000C06920F080502749C86100BFE069C8B366
:101560002448406800F00C00082860D0E069022898
:1015700048D1002020490866FFF75AFC054606E0DE
:10158000FFF756FC401B022801D903203AE6194810
:10159000006800F000700028F2D1206AB0F5803FAA
:1015A00007D11448406820F40030A168084311496D
:1015B0004860D4E9080108430E49496821F47411D0
:1015C00008430C49486001200B490866FFF730FCCE
:1015D000054607E03DE0FFF72BFC401B022801D940
:1015E00003200FE60348006800F000700028F2D0E6
:1015F0002FE00000001002400000424280044242FE
:1016000000700040002014490866FFF711FC0546F1
:1016100006E0FFF70DFC401B022801D90320F1E58D
:101620000E48006800F000700028F2D111E0E06977
:10163000012800D1E6E50948466806F48031206AB1
:10164000814204D106F47011606A814201D0012008
:10165000D8E50020D6E5000000004242001002401C
:10166000042808D14FF0E021096941F004014FF04E
:10167000E022116107E04FF0E021096921F0040147
:101680004FF0E0221161704770B504462546681E90
:10169000B0F1807F01D301200FE0681E4FF0E02100
:1016A00048610F214FF0FF3000F06AFC00204FF03E
:1016B000E021886107200861002070BD70470000AC
:1016C0002DE9F0470446206805682068C668206850
:1016D00047694FF00008C14605F00F08B8F1000F48
:1016E0000AD105F0200038B106F0200020B12046D4
:1016F00000F036FBBDE8F087B8F1000F71D007F0BD
:10170000010018B906F4907000286AD005F00100B5
:1017100030B106F4807018B1E06B40F00100E06376
:1017200005F0040030B107F0010018B1E06B40F0A3
:101730000200E06305F0020030B107F0010018B1CB
:10174000E06B40F00400E06305F0080048B106F0EB
:10175000200010B907F0010018B1E06B40F008005C
:10176000E063E06B68B305F0200028B106F02000CC
:1017700010B1204600F0F4FA20684069C0F38019E7
:10178000E06B00F0080010B9B9F1000F22D020463C
:1017900000F0C6FA2068406900F04000B0B120684F
:1017A000406920F0400021684861606B50B11848E2
:1017B000616B4863606BFFF7B9F810B1606B416B08
:1017C00088470CE02046FFF779FF08E02046FFF746
:1017D00075FF04E02046FFF771FF0020E06389E712
:1017E000FFE705F0800030B106F0800018B1204618
:1017F00000F084FB7EE705F0400030B106F04000C9
:1018000018B1204600F09CFA74E700BF72E70000B0
:101810000D1D000810B504460CB9012010BDA069CB
:1018200000B100E000BF94F8390028B9002084F826
:101830003800204600F028F8242084F83900206879
:10184000C06820F400502168C860204600F0D8FA33
:101850002068006920F49040216808612068406990
:1018600020F02A00216848612068C06840F40050D8
:101870002168C8600020E063202084F8390084F8E3
:101880003A000020CAE7000010B586B00446284997
:10189000206888424AD100BF00BF2648806940F0D6
:1018A0000400244988610846806900F00400019022
:1018B00000BF00BF00BF00BF00BF0846806940F006
:1018C000040088610846806900F00400019000BFB0
:1018D00000BF00BF00BF00BF0846806940F48040E1
:1018E00088610846806900F48040019000BF00BF15
:1018F00000BF4815029002200390012004900320AD
:10190000059002A90C48FFF7E5F84FF480600290BB
:101910000020039002A90848FFF7DCF82520FFF714
:10192000D4FA032211462520FFF7DFFA06B010BDD6
:1019300000380140001002400008014010B5034685
:1019400093F83A0020282FD101B10AB9012010BD27
:1019500000BF93F83800012801D10220F7E70120E9
:1019600083F8380000BF99629A85DA850020D86331
:10197000222083F83A0000BF002083F8380000BF1F
:101980001868C06840F480701C68E060186840699E
:1019900040F001001C6860611868C06840F02000D9
:1019A0001C68E0600020D2E70220D0E710B50446B2
:1019B0002049206888423BD11F48008800F400403D
:1019C00088BB1D48008800F4804070B11B48007837
:1019D0000A2803D000201849088024E0164800880F
:1019E00040F40040144908801DE0144800780D2898
:1019F00006D11148008840F480400F49088012E069
:101A00000E4800780C490988C1F30D010C4A505466
:101A100009480088401C0849088008460088C728F3
:101A200001DD00200880012204490648FFF786FFF7
:101A300010BD0000003801408C0000208E00002006
:101A4000E82B0020B02C0020704700BFFEE700000C
:101A500000243AE001211D4800F098F8012831D116
:101A6000C4B91BA0FEF728FC1D48006801F0B8FEB1
:101A700001241CA0FEF720FC012211461E48FFF79E
:101A8000D1F9322001F01EFC002201211A48FFF793
:101A9000C9F917E019A0FEF70FFC1148006801F022
:101AA000AFFD002419A0FEF707FC012211461248E1
:101AB000FFF7B8F9322001F005FC002201210E48A1
:101AC000FFF7B0F9142001F0FDFBC3E70008014067
:101AD000B9D2C6F054657374C8CECEF1A3A10A0082
:101AE00004000020B9D2C6F054657374C8CECEF19C
:101AF000B3C9B9A6A3A10A0000100140BBD6B8B46F
:101B000054657374C8CECEF1A3A10A00BBD6B8B495
:101B100054657374C8CECEF1B3C9B9A6A3A10A00A7
:101B200000B585B000BF1648806940F00400144934
:101B300088610846806900F00400009000BF00BF83
:101B400000BF0846806940F010008861084680693F
:101B500000F01000009000BF00BF012001900020A5
:101B60000290039001A90748FEF7B4FF4FF400501C
:101B7000019001A90448FEF7ADFF05B000BD0000CB
:101B800000100240000801400010014070B50446FA
:101B90000D4629462046FFF73DF9012808D100BF30
:101BA00029462046FFF736F90128F9D0012070BDFB
:101BB0000020FCE700B585B000BF2448806940F0F4
:101BC0000800224988610846806900F008000090FA
:101BD00000BF00BF00BF0846806940F00800886170
:101BE0000846806900F00800009000BF00BF00BFF9
:101BF0000846806940F0080088610846806900F066
:101C00000800009000BF00BF20200190012002903A
:101C100003900320049001A90D48FEF75BFF01200B
:101C2000019001A90A48FEF755FF0220019001A981
:101C30000748FEF74FFF20200549103108600120BA
:101C400008600220086005B000BD000000100240DE
:101C5000000C014000BFFEE77047000008B50849CE
:101C60000968C9084FF47A72B1FBF2F1414300915F
:101C700000BF00BF00994A1E00920029F9D108BD9B
:101C80000C00002010B5FFF7D9F802F0ADFA0128DA
:101C900001D001F0E5FE10BD7047000014E04FF4E4
:101CA00000100A4908600AA0FEF706FB4FF4FA701C
:101CB00001F008FB2020054908600CA0FEF7FCFAA3
:101CC0004FF4FA7001F0FEFAE9E70000100C014051
:101CD000546573745F5461736B2052756E6E696ED8
:101CE000672C4C4544315F4F4E0D0A0054657374A8
:101CF0005F5461736B2052756E6E696E672C4C4534
:101D000044315F4F46460D0A0000000070B505469D
:101D10006C6A0020E085E0842046FFF7CFFC70BDB0
:101D20000168C96821F490710268D160016849694D
:101D300021F0010102685161202180F83A107047BA
:101D400010B504462068C06820F040002168C860D3
:101D5000202084F839002046FFF776FE002010BDD1
:101D600070B5044694F83A00222847D1A068B0F52F
:101D7000805F0CD1206950B90025A66A20684068B0
:101D8000C0F308003080A06A801CA06215E0A56A3C
:101D90000026A068B0F5805F03D0A06828B920694C
:101DA00018B920684068287004E02068406800F096
:101DB0007F002870A06A401CA062E08D401E80B2A7
:101DC000E085C8B92068C06820F020002168C8609C
:101DD0002068C06820F480702168C860206840696D
:101DE00020F0010021684861202084F83A00204654
:101DF000FFF7DCFD002070BD0020FCE70220FAE7C1
:101E000070B504462168096921F44051E268114324
:101E1000226811612269A1681143626941EA0205E1
:101E20002168C96841F20C62914329432268D1605C
:101E30002168496921F44071A26911432268516106
:101E40002D4A2168914202D1FFF77EF901E0FFF7A8
:101E50006BF900EBC00101EB001162689200B1FB6D
:101E6000F2F100EBC00202EB001263689B00B2FBD0
:101E7000F3F26423B2FBF3F202EBC20303EB0212B0
:101E8000A1EB8201322202EB01116422B1FBF2F1DB
:101E900001F0F00100EBC00202EB001263689B004E
:101EA000B2FBF3F26423B2FBF3F201EB021200EB9C
:101EB000C00101EB001163689B00B1FBF3F100EB83
:101EC000C00303EB00136668B600B3FBF6F36426A9
:101ED000B3FBF6F303EBC30606EB0313A1EB83019D
:101EE000322303EB01116423B1FBF3F101F00F0185
:101EF00011442268916070BD00380140014691F89C
:101F00003900212828D18868B0F5805F0BD1086995
:101F100048B90A6A1088C0F308000B685860086A5C
:101F2000801C086205E00B6A581C086218780B6870
:101F30005860C88C401E80B2C88458B90868C06810
:101F400020F080000B68D8600868C06840F040004E
:101F50000B68D860002070470220FCE710B50248EB
:101F6000FFF7AEFB10BD0000B02C002000BFFEE765
:101F700002480068C0F30220704700000CED00E04A
:101F800010B5002804DB0A07130E054A135406E0B7
:101F90000A07140E034A00F00F031B1FD45410BD90
:101FA00000E400E018ED00E030380A2801D20120FA
:101FB00070470020704700BF7047000070B50446AE
:101FC00000204FF0E0210861FFF74AFBE11704EB26
:101FD0005171C1F3CF010C4A1180E11704EB51712B
:101FE000CD104FF47A7045434FF0E020006940F087
:101FF00002004FF0E021086108464561006940F0A9
:102000000100086170BD00008400002000BF054A87
:10201000126802F04002002AF9D0C2B2014B1B1D27
:102020001A607047003801401CB5FEF713FF4FF4EB
:10203000E01000F027FF4820FFF7C0FF4FF4E13029
:1020400000F054FF0124FEF763FC0DA0FEF734F905
:1020500019A0FEF731F92148012100234A02CDE9F8
:1020600000101FA1224802F08FF80446012C02D173
:1020700001F056FB02E04FF0FF301CBD00BFFEE751
:10208000D5E2CAC7D2BBB8F65BD2B0BBF05D2D5368
:10209000544D3332C8ABCFB5C1D0BFAAB7A2B0E55B
:1020A0002D4672656552544F53B9CCBCFEBFE2CA8F
:1020B000B5D1E9A3A10A0A00B0B4CFC24B4559314A
:1020C000B9D2C6F0C8CECEF1A3ACB0B4CFC24B45A6
:1020D0005932BBD6B8B4C8CECEF10A0000000020F9
:1020E0004170705461736B437265617465000000E8
:1020F0000D0800082DE9F04105460E461F48076807
:1021000000201F49096881F859001D480068001D1A
:1021100000F008FF50B91A48006890F82C10012010
:10212000884018490968814316480160681C38B91D
:1021300036B113480168091D134800F031FF1AE059
:102140007C190F4800684460BC4207D20C48016803
:10215000091D0E48006800F009FF0CE008480168FE
:10216000091D0B48006800F001FF0A48006884421E
:1021700001D208480460BDE8F0810000240000207E
:102180001000002028000020AC03002018000020D0
:10219000140000204000002010B5044600F00CFFA1
:1021A00024480068401C234908602348006840B95F
:1021B000214804600846006801280DD100F0FAF9B2
:1021C0000AE01E48006838B91B480068C06AE16A26
:1021D000884201D81848046019480068401C184912
:1021E000086008460068606494F82C10012088405C
:1021F00014490968084313490860E16A01EB810149
:10220000114A02EB8100211D00F0CAFE00F01CFF04
:102210000A48006868B108480068C06AE16A8842F4
:1022200007D24FF0805009490860BFF34F8FBFF3CA
:102230006F8F10BD20000020100000202C00002017
:102240003C00002028000020DC00002004ED00E01D
:1022500010B500F0B1FE10480068D0B90F4800F08A
:1022600075FE0F4800F072FE0C480E4908600C48DD
:102270000D49086000221021052001F00BFC0649E1
:1022800008600846006820B108A10348006800F013
:10229000DDFF00F0D9FE10BD54000020C003002077
:1022A000D40300204C00002050000020546D7251D7
:1022B0000000000070B523E001F01CFB134800682B
:1022C00008B9012000E00020054602F039F9BDB947
:1022D00000F072FE0D48C068C468201D00F022FEA8
:1022E0000B480068401E0A4908600A480068401E02
:1022F0000849086000F0A8FE204600F060F800BF22
:10230000044800680028D7D170BD00009803002061
:10231000200000201C00002070B504460D46206CF3
:1023200070B1216CE0680844E0606168E068884250
:1023300001D32068E0602846226CE168FEF7CAF805
:1023400070BD2DE9F04104460F4615464FF00008D8
:10235000A66B206C40B9206860BB606802F016F87C
:1023600080460020606025E07DB93946226CA06877
:10237000FEF7B0F8216CA0680844A060D4E9011011
:10238000884217D32068A06014E03946226CE068C8
:10239000FEF7A0F8216CE068401AE0602168E06870
:1023A000884203D2216C6068401AE060022D01D19E
:1023B00006B1761E701CA0634046BDE8F08110B5E2
:1023C0000446206B00F07CFE204600F079FE10BD34
:1023D0000146084A126812680AB9012200E0002288
:1023E0000A600A6822B9034A1268D268106800E0DD
:1023F000002070474C00002030B54FF420531748A0
:1024000000F007042CB1C01D20F00700134C041B82
:102410001B1B0246124C22600024114D6C60D01828
:10242000083820F007000F4C206000240D4D2D6867
:102430006C600C4D2D682C601146441A4C60094CA0
:1024400024680C60084D4C682C60084D4C682C606A
:102450004FF00044064D2C6030BD0000E803002022
:102460006C000020740000207C0000207800002018
:102470008000002000BFFFF71DFF0648006801280C
:10248000F9D94FF0805004490860BFF34F8FBFF374
:102490006F8FF0E7DC00002004ED00E02DE9F04153
:1024A00006460D4617469846069C0DB9246000E086
:1024B0002760E66325640121204601F01DFC84F8B5
:1024C00050800020A064BDE8F08100002DE9F05F9D
:1024D00082460F4690469B460A9E0C9C4FEA880116
:1024E000A522206BFEF76DF8A8F10100216B01EB2E
:1024F000800929F0070909F0070008B9012000E068
:10250000002028B940F22B321CA126A0FDF7D4FEF2
:10251000002507E0795D04F134004155785D00B98C
:1025200002E06D1C102DF5D300BF002143200155A2
:10253000202E00D31F26E662E66400202065201DC1
:1025400000F011FD04F1180000F00DFD2461C6F14A
:102550002000A06164620020606584F8580084F85F
:1025600059005A465146484600F07AFC20600B98C4
:1025700008B10B980460BDE8F09F00002E2E5C2E81
:102580002E5C4D6964646C6577617265735C46723C
:10259000656552544F535C7372635C7461736B7303
:1025A0002E6300004572726F723A2025732C20252D
:1025B000640D0A0010B5002407E004EB84010F4A03
:1025C00002EB810000F0C2FC641C202CF5D30C4807
:1025D00000F0BCFC0B4800F0B9FC0B4800F0B6FC66
:1025E0000A4800F0B3FC0A4800F0B0FC044809496E
:1025F000086004480849086010BD0000DC000020A5
:102600005C03002070030020840300209803002056
:10261000AC030020140000201800002010B5014673
:10262000164800E0006803688B42FBD3024643680B
:1026300013448B4204D143684C68234443600146F1
:102640000A464B6813440468A34211D10C4C03683A
:102650002468A34208D04B680468646823444B6034
:1026600003681B680B6005E0054B1B680B6001E00D
:1026700003680B60884200D0016010BD6C00002030
:10268000740000202DE9F04104460D4616461F4611
:102690004FF0000865602461B5420CD8F01BA169B9
:1026A000884202D34FF0010811E0211D094800685B
:1026B00000F05CFC0BE0BE4204D2BD4202D34FF0FE
:1026C000010804E0211D0448006800F04FFC40466A
:1026D000BDE8F081500000204C00002070B5054698
:1026E00000F06AFCA86B08B9012400E0002400F0A7
:1026F000ABFC204670BD70B5054600F05DFCA86BD4
:10270000E96B884201D1012400E0002400F09CFC28
:10271000204670BD2DE9F3410D460098846C0027DA
:102720002CB940F6CE121AA123A0FDF7C5FDA06B6F
:10273000E16B884201D2012000E0002028B940F678
:10274000CF1213A11CA0FDF7B7FDA06BE16B88426F
:102750001BD294F945602A4669462046FFF7F1FDF1
:102760000746701C60B9606A08B9012000E00020CB
:1027700050B904F1240001F07FFE28B1012703E0E5
:10278000701C40B284F8450000BF3846BDE8FC81AB
:102790002E2E5C2E2E5C4D6964646C6577617265CB
:1027A000735C4672656552544F535C7372635C711F
:1027B000756575652E6300004572726F723A20254B
:1027C000732C2025640D0A00F8B505460F46134802
:1027D0000068C068C468201D00F0A4FBE0690128FF
:1027E00018D1A06941192B463A462046FFF74AFF07
:1027F00080B1002003462A4601460090204601F0A1
:102800007BFF06462EB94FF4027205A10EA0FDF71C
:1028100053FD00BF2046616A8847F8BD4C00002088
:102820002E2E5C2E2E5C4D6964646C65776172653A
:10283000735C4672656552544F535C7372635C748B
:10284000696D6572732E63004572726F723A20254E
:10285000732C2025640D0A00F0B587B070E0039852
:1028600000280CDA04AE2EB940F2E7223AA144A0C7
:10287000FDF722FDD6E90020B168904700BF03981C
:1028800000285DDB059C606908B9012000E000209C
:1028900010B9201D00F046FB02A800F0CFF8054655
:1028A00003980A284AD2DFE800F00905072C2E45D4
:1028B00006082D2F00BF00BF00BF00BF0498A2690B
:1028C000811803462A462046FFF7DCFEC0B12046A9
:1028D000616A8847E069012812D1002000900498BD
:1028E000A169421800231946204601F005FF07465A
:1028F0002FB940F2213218A121A0FDF7DDFC00BF65
:102900001DE000BF1BE000BF0498A061A06908B1F2
:10291000012000E0002028B94FF44E720EA118A04B
:10292000FDF7CAFCA06941192B462A462046FFF74D
:10293000A9FE04E0204600F0C3FB00E000BF00BF9A
:1029400000231A4603A91248006801F0E7F800289E
:1029500085D107B0F0BD00002E2E5C2E2E5C4D6997
:1029600064646C6577617265735C46726565525428
:102970004F535C7372635C74696D6572732E630090
:102980004572726F723A2025732C2025640D0A005F
:1029900054000020F8B505460C4600F0ABFF684631
:1029A00000F04CF80646009820BB44B9B54206D862
:1029B00001F0C6FD31462846FFF706FF1CE03CB19A
:1029C0000E480068006808B9012000E000200446B5
:1029D000A91B22460A48006800F04EFC01F0B0FD39
:1029E00050B94FF0805007490860BFF34F8FBFF3D5
:1029F0006F8F01E001F0A4FDF8BD00005000002041
:102A00005400002004ED00E00A490968096809B98A
:102A1000012100E0002121B14FF0FF31064A116091
:102A200006E004490968C968C868034A416811603A
:102A300070470000140000204000002070B50446DC
:102A400001F0E2FB054607480068854204D200F029
:102A50000BF80120206001E00020206001480560A3
:102A6000284670BD5C0000202DE9F8432DE0214888
:102A70000068C06805681F480068C068C468201DF9
:102A800000F050FA2046616A8847E06901281CD1AD
:102A9000A0694619AE4207D966602461211D154818
:102AA000006800F063FA10E0002003462A46014661
:102AB0000090204601F020FE07462FB940F29232E6
:102AC0000DA117A0FDF7F8FB00BF0A4800680068D9
:102AD00008B9012000E000200028C8D00548D0F83F
:102AE000008013480068034908601148C0F800805E
:102AF000BDE8F8834C0000202E2E5C2E2E5C4D6924
:102B000064646C6577617265735C46726565525486
:102B10004F535C7372635C74696D6572732E6300EE
:102B20004572726F723A2025732C2025640D0A00BD
:102B3000500000200B480068401C08B9012000E04C
:102B4000002020B9F42208A114A0FDF7B5FB00BFB6
:102B5000502080F31188BFF34F8FBFF36F8F00BFFA
:102B600000BFFEE7600000202E2E5C2E2E5C4D691B
:102B700064646C6577617265735C46726565525416
:102B80004F535C706F72745C525644535C41524DAB
:102B90005F434D335C706F72742E63004572726FC9
:102BA000723A2025732C2025640D0A0070B5054665
:102BB00000262C462DB940F281620EA117A0FDF728
:102BC0007BFB1A496069884201D1012000E00020A6
:102BD00070B11749A06A884201D1012000E00020AD
:102BE00030B9A06A08B9012000E0002000B1012638
:102BF000304670BD2E2E5C2E2E5C4D6964646C6573
:102C000077617265735C4672656552544F535C73AD
:102C100072635C7461736B732E6300004572726F34
:102C2000723A2025732C2025640D0A00AC03002085
:102C30008403002008B500BF6846FFF7C9FB0446BF
:102C400020460099FFF7A6FEFFF706FEF4E770B5F1
:102C5000044600F0B1F994F945501AE0A06C38B17F
:102C600000212046FFF756FD88B100F0FFFB0EE083
:102C7000606A08B9012000E0002038B904F124009E
:102C800001F0FAFB18B100F0F1FB00E003E0681E70
:102C900045B2002DE2DC00BFFF2084F8450000F0C3
:102CA000D3F900F089F994F9445010E0206908B98B
:102CB000012000E0002048B904F1100001F0DCFB25
:102CC00008B100F0D3FB681E45B200E001E0002D22
:102CD000ECDC00BFFF2084F8440000F0B5F970BDC3
:102CE0002DE9F04104464FF0000800F003FE3E4895
:102CF000006808B9FFF780FB3C48006820400028C6
:102D00005FD1A4B1083404F0070080B104F00700DB
:102D1000C0F10800044404F0070008B9012000E0F5
:102D2000002020B9BF2232A13EA0FDF7C5FA002C39
:102D300047D040480068844243D83F4E304605683B
:102D400001E02E462D686868A04202D2286800285B
:102D5000F7D125480068854233D0306800F1080873
:102D6000286830606868001B102813D92F1907F0F5
:102D7000070008B9012000E0002020B9EC221CA1C6
:102D800028A0FDF799FA6868001B78606C603846E7
:102D9000FFF744FC274968680968081A2549086054
:102DA0000846006825490968884203D2214800681E
:102DB000224908600D496868096808436860002076
:102DC000286001F0BDFB08F0070008B9012000E011
:102DD000002028B94FF4967205A112A0FDF76CFAF5
:102DE0004046BDE8F0810000740000208000002013
:102DF0002E2E5C2E2E5C4D6964646C657761726565
:102E0000735C4672656552544F535C706F72745CAC
:102E10004D656D4D616E675C686561705F342E63F2
:102E2000000000004572726F723A2025732C202535
:102E3000640D0A00780000206C0000207C00002057
:102E40000648006830B10549096801F15000096D74
:102E5000491C016001480068704700001000002014
:102E6000001F4FF080730360001F21F00103036017
:102E7000001F034B036014380260203870470000C5
:102E8000352B000830B58FB005460124282105A850
:102E9000FDF7C1FB14216846FDF7BDFB012005903D
:102EA000000406900020079002200C90C1030D91B1
:102EB0000E9505A8FEF7A2F904460CB100BFFEE787
:102EC0000F20009002200190002002904FF48060BB
:102ED00003900020049002216846FEF759F804464A
:102EE0000CB100BFFEE70FB030BD000010B50446C6
:102EF00009480A4908600846446000218160C160B1
:102F0000016181610C214161FEF784FC01220449C9
:102F10000248FEF713FD10BD00380140B02C002020
:102F20008E00002001460A69D1E901309860D1E99C
:102F3000010358605068884201D1886850600020C1
:102F400008611068401E10601068704700F10801A9
:102F500041604FF0FF31816000F10801C160016103
:102F600000210160704700210161704710B50246E1
:102F70000B685C1C0CB9106907E002F1080000E066
:102F80004068446824689C42FAD944684C604C68A4
:102F9000A160886041600A611468641C146010BDFF
:102FA00042684A6093688B609368596091600861D9
:102FB00003685B1C0360704710B500BF502080F3AE
:102FC0001188BFF34F8FBFF36F8F00BF0B480068AE
:102FD000401C0A4908600846006801280DD10848CD
:102FE0000068C0B208B9012000E0002028B94FF401
:102FF000BD7204A110A0FDF75FF910BD60000020B4
:1030000004ED00E02E2E5C2E2E5C4D6964646C6530
:1030100077617265735C4672656552544F535C709C
:103020006F72745C525644535C41524D5F434D3352
:103030005C706F72742E63004572726F723A202555
:10304000732C2025640D0A0010B50B48006828B9C0
:1030500040F2811209A116A0FDF72EF9064800687A
:10306000401E054908600846006820B9002080F32A
:10307000118800BF00BF10BD600000202E2E5C2E06
:103080002E5C4D6964646C6577617265735C467231
:10309000656552544F535C706F72745C5256445362
:1030A0005C41524D5F434D335C706F72742E630010
:1030B0004572726F723A2025732C2025640D0A0028
:1030C00070B506463546002E35D0083D2C461A49C7
:1030D00060680968084008B1012000E0002028B9B4
:1030E0004FF4A07215A122A0FDF7E6F8206808B9F8
:1030F000012000E0002028B940F241120FA11CA0DD
:10310000FDF7DAF80C4960680968084098B1206852
:1031100088B90949606809688843606000F0EAFB83
:103120001749606809680844154908602046FFF798
:1031300075FA01F005FA70BD800000202E2E5C2E7D
:103140002E5C4D6964646C6577617265735C467270
:10315000656552544F535C706F72745C4D656D4D74
:10316000616E675C686561705F342E63000000000B
:103170004572726F723A2025732C2025640D0A0067
:103180007800002006480068C0084FF47A71B0FB50
:10319000F1F0401E4FF0E0214861032008617047C4
:1031A0000C00002070B5FDF761F80546102D11D315
:1031B00005F1E02090F8F04310480078844201DBEC
:1031C000012000E0002028B94FF42A720CA119A0B8
:1031D000FDF772F81B48006800F4E0601A490968BE
:1031E000884201D8012000E0002028B94FF42E7257
:1031F00003A110A0FDF760F870BD0000640000207E
:103200002E2E5C2E2E5C4D6964646C657761726550
:10321000735C4672656552544F535C706F72745C98
:10322000525644535C41524D5F434D335C706F7254
:10323000742E63004572726F723A2025732C20251C
:10324000640D0A000CED00E068000020024600203A
:103250000BE0084B53F8303033B9064B43F83010CD
:1032600003EBC0035A6002E0401C0828F1D300BF02
:10327000704700009C0000202DE9F04105460E46F5
:1032800017462C46FFF798FE94F94400401C10B9ED
:10329000002084F8440094F94500401C10B9002037
:1032A00084F84500FFF7D0FEA06B28B93A463146B6
:1032B00004F1240000F014F92046FFF7C8FCBDE833
:1032C000F081000070B504460025ACB10F480068DD
:1032D00008B9012000E0002028B940F2CF420CA13B
:1032E00015A0FCF7E9FF00F005FB00212046FEF7E2
:1032F00001FF01F025F905463DB94FF08050124914
:103300000860BFF34F8FBFF36F8F70BD4800002080
:103310002E2E5C2E2E5C4D6964646C65776172653F
:10332000735C4672656552544F535C7372635C7490
:1033300061736B732E6300004572726F723A2025C1
:10334000732C2025640D0A0004ED00E070B50546DD
:10335000FFF732FE15B92D48006800E02846044604
:10336000201DFFF7DFFD78B9E06A00EB80002849F7
:1033700051F8200040B994F82C10012088402549CC
:103380000968814323480160A06A18B104F118005C
:10339000FFF7C8FD20480068401C1F4908601B4813
:1033A0000068844209D1211D1C48FFF7F9FD1C4823
:1033B0000068401C1A49086009E01A480068401E6D
:1033C000184908602046FEF7FAFFFFF71DFBFFF7DC
:1033D0003BFE15480068C0B10C480068844214D117
:1033E0001248006808B9012000E0002028B940F226
:1033F00065420FA118A0FCF75FFF4FF080501A49FB
:103400000860BFF34F8FBFF36F8F70BD10000020B7
:10341000DC000020280000203C0000209803002051
:103420001C000020200000202C000020480000206C
:103430002E2E5C2E2E5C4D6964646C65776172651E
:10344000735C4672656552544F535C7372635C746F
:1034500061736B732E6300004572726F723A2025A0
:10346000732C2025640D0A0004ED00E001200149C1
:10347000086070473400002070B504460D462CB932
:1034800040F6063207A111A0FCF716FF13480168A9
:1034900018312046FFF76AFD01212846FEF72AFE73
:1034A00070BD00002E2E5C2E2E5C4D6964646C6530
:1034B00077617265735C4672656552544F535C73F5
:1034C00072635C7461736B732E6300004572726F7C
:1034D000723A2025732C2025640D0A00100000206C
:1034E00070B505460E4614462DB940F6313209A195
:1034F00012A0FCF7E1FE1548016818312846FFF7D5
:103500004FFD0CB14FF0FF3621463046FEF7F2FD7D
:1035100070BD00002E2E5C2E2E5C4D6964646C65BF
:1035200077617265735C4672656552544F535C7384
:1035300072635C7461736B732E6300004572726F0B
:10354000723A2025732C2025640D0A0010000020FB
:1035500070B505462C46002D4BD02649E06A096817
:10356000C96A884245D2A06900F0004028B92148C4
:103570000068C06AC0F12000A061E16A01EB81012E
:103580001D4A02EB81016069884201D1012000E0FF
:10359000002050B3201DFFF7C5FC78B9E06A00EBAE
:1035A0008000154951F8200040B994F82C100120F2
:1035B0008840124909688143104801600D4800683D
:1035C000C06AE06294F82C10012088400B49096819
:1035D00008430A490860E16A01EB8101064A02EBEF
:1035E0008100211DFFF7DCFC03E002480068C06A8F
:1035F000E06270BD10000020DC00002028000020E8
:1036000070B505462C462DB940F2AB621AA124A034
:10361000FCF752FE74B32648006884422AD0FFF7B4
:10362000CBFC2046FFF7C2FA10B3201DFFF77AFC4F
:1036300094F82C10012088401E49096808431D4950
:103640000860E16A01EB81011B4A02EB8100211D48
:10365000FFF7A6FC1649E06A0968C96A884207D3E1
:103660004FF0805015490860BFF34F8FBFF36F8F45
:10367000FFF7EAFC70BD00002E2E5C2E2E5C4D691B
:1036800064646C6577617265735C467265655254FB
:103690004F535C7372635C7461736B732E630000D1
:1036A0004572726F723A2025732C2025640D0A0032
:1036B0001000002028000020DC00002004ED00E0C5
:1036C00010B504462CB940F6C13205A10EA0FCF796
:1036D000F3FD11480068206010480068606010BD6C
:1036E0002E2E5C2E2E5C4D6964646C65776172656C
:1036F000735C4672656552544F535C7372635C74BD
:1037000061736B732E6300004572726F723A2025ED
:10371000732C2025640D0A003800002024000020AE
:103720001CB51A4800210B468022CDE9001018A1D3
:10373000194800F029FD0446012C02D100F09AFF3F
:103740000446012C15D100BF502080F31188BFF32F
:103750004F8FBFF36F8F00BF4FF0FF300F490860EE
:1037600001200F49086000200E49086000F028F988
:103770000BE0601C08B1012000E0002028B940F2F5
:10378000847209A112A0FCF797FD1CBD4400002023
:1037900049444C450000000075240008400000200A
:1037A0002C000020240000202E2E5C2E2E5C4D6963
:1037B00064646C6577617265735C467265655254CA
:1037C0004F535C7372635C7461736B732E630000A0
:1037D0004572726F723A2025732C2025640D0A0001
:1037E00070B50546FFF7E8FB15B92C48006800E006
:1037F00028460446201DFFF795FB78B9E06A00EBE8
:103800008000274951F8200040B994F82C1001207D
:10381000884024490968814322480160A06A18B1A0
:1038200004F11800FFF77EFB211D1F48FFF7B8FBCE
:10383000FFF70AFC1D48006828B1FFF7BDFBFFF742
:10384000E3F8FFF701FC15480068844224D11748CB
:103850000068A8B11648006808B9012000E00020FF
:1038600028B940F2576213A11CA0FCF725FD4FF0C8
:1038700080501E490860BFF34F8FBFF36F8F0BE07E
:10388000094800681A490968884203D100200349A1
:10389000086001E000F036F870BD00001000002064
:1038A000DC00002028000020AC0300202C000020B9
:1038B000480000202E2E5C2E2E5C4D6964646C65E1
:1038C00077617265735C4672656552544F535C73E1
:1038D00072635C7461736B732E6300004572726F68
:1038E000723A2025732C2025640D0A0004ED00E0B7
:1038F0002000002002480068401C01490860704711
:103900004800002010B51B48006818B101201A4972
:1039100008602DE000201849086018480068B0FAD7
:1039200080F0C0F11F0404EB8400154951F8200019
:1039300008B1012000E0002028B940F6F62211A1CC
:103940001AA0FCF7B9FC04EB84010D4A02EB8100DC
:1039500041684968416000F1080142688A4202D129
:103960004168496841604168C968144A116000BFF4
:1039700010BD000048000020340000202800002076
:10398000DC0000202E2E5C2E2E5C4D6964646C657C
:1039900077617265735C4672656552544F535C7310
:1039A00072635C7461736B732E6300004572726F97
:1039B000723A2025732C2025640D0A001000002087
:1039C0001CB52248014609780191FF210246117079
:1039D0000146097800919DF8001001F050011C4A41
:1039E000117007211B4A116009E01A490968491E34
:1039F000184A11609DF800104906090E00919DF8C3
:103A0000001001F080018029EFD0124909680902F5
:103A1000104A11601146098801F4E06111600B4AF7
:103A2000019911700C48006840F470000A49086060
:103A30000846006840F070400860FFF7A3FB0020D4
:103A400006490860FCF7DCFB00201CBD00E400E038
:103A5000640000206800002020ED00E060000020ED
:103A600010B500BF502080F31188BFF34F8FBFF314
:103A70006F8F00BF00F0CEFB18B14FF080500449AB
:103A8000086000BF002080F3118800BF10BD000057
:103A900004ED00E02DE9F84305460E4690460DB1D1
:103AA000012000E0002028B94FF4C4720DA117A036
:103AB000FCF702FC0EB9002701E005FB06F707F151
:103AC0005400FFF70DF9044644B104F1540943468C
:103AD0004A46314628460094FEF7E0FC2046BDE801
:103AE000F88300002E2E5C2E2E5C4D6964646C659C
:103AF00077617265735C4672656552544F535C73AF
:103B000072635C71756575652E6300004572726F36
:103B1000723A2025732C2025640D0A002DE9FF47F9
:103B200082B005460E461F464FF0000A2C462CB9BF
:103B300040F2DC4261A16BA0FCF7BEFB0EB9206C29
:103B400008B9012000E0002028B940F2DD425BA165
:103B500064A0FCF7B1FB00F047FB08B9049808B972
:103B6000012000E0002028B94FF49C6253A15DA021
:103B7000FCF7A2FB00BFFFF71FFAD4F83890B9F1A9
:103B8000000F3DD0D4F80C8031462046FEF7C4FB30
:103B9000DFB9A9F10100A063206810B9FFF750F95F
:103BA0006060206908B9012000E0002010BB04F12A
:103BB000100000F061FCE8B14FF080504D49086002
:103BC000BFF34F8FBFF36F8F14E0C4F80C80606AAF
:103BD00008B9012000E0002060B904F1240000F0E1
:103BE0004BFC38B14FF0805042490860BFF34F8F13
:103BF000BFF36F8FFFF728FA012006B0BDE8F0870A
:103C0000049818B9FFF720FA0020F6E7BAF1000F80
:103C100004D16846FFF754FD4FF0010AFFF714FA8C
:103C2000FFF768FEFFF7C8F994F94400401C10B98B
:103C3000002084F8440094F94500401C10B900208D
:103C400084F84500FFF700FA04A9684600F034FA4A
:103C500040BB2046FEF742FDF0B1206830B9FFF7C7
:103C6000ABF96068FFF774FCFFF7EEF904F124008C
:103C70000499FFF701FC2046FEF7E9FF00F060FC25
:103C800000287FF478AF4FF080501A490860BFF3E6
:103C90004F8FBFF36F8F6EE72046FEF7D8FF00F01F
:103CA0004FFC68E72046FEF7D2FF00F049FC2046B3
:103CB000FEF714FD0028EED000209EE72E2E5C2E8D
:103CC0002E5C4D6964646C6577617265735C4672E5
:103CD000656552544F535C7372635C7175657565AD
:103CE0002E6300004572726F723A2025732C2025D6
:103CF000640D0A0004ED00E070B505460E462C4642
:103D00002CB940F21B121EA127A0FCF7D5FAFFF731
:103D100053F9D4E90F12206801FB02006060002013
:103D2000A0632068A060E06B401E226C216800FB4D
:103D30000210E060FF2084F8440084F845009EB93A
:103D4000206908B9012000E00020A8B904F11000A2
:103D500000F092FB80B14FF0805017490860BFF32C
:103D60004F8FBFF36F8F07E004F11000FFF7EEF8FD
:103D700004F12400FFF7EAF8FFF766F9012070BDAF
:103D80002E2E5C2E2E5C4D6964646C6577617265C5
:103D9000735C4672656552544F535C7372635C7119
:103DA000756575652E6300004572726F723A202545
:103DB000732C2025640D0A0004ED00E02DE9FF437B
:103DC00083B0064688461D464FF0000934462CB99C
:103DD00040F2D92260A16AA0FCF76EFAB8F1000F98
:103DE00001D1206C08B9012000E0002028B940F280
:103DF000DA2259A162A0FCF75FFA022D02D1E06B32
:103E0000012801D1012000E0002028B940F2DB2286
:103E100051A15BA0FCF750FA00F0E6F908B905984B
:103E200008B9012000E0002028B940F2DE224AA1B2
:103E300053A0FCF741FA00BFFFF7BEF8A06BE16B9F
:103E4000884201D3022D38D12A4641462046FEF74A
:103E500078FA0746A06C68B129462046FEF75AFC5E
:103E600028B34FF080504A490860BFF34F8FBFF32B
:103E70006F8F1CE0606A08B9012000E0002068B97B
:103E800004F1240000F0F8FA88B14FF08050404966
:103E90000860BFF34F8FBFF36F8F08E03FB14FF063
:103EA00080503B490860BFF34F8FBFF36F8FFFF720
:103EB000CBF8012007B0BDE8F083059818B9FFF7EB
:103EC000C3F80020F6E7B9F1000F04D101A8FFF70D
:103ED000F7FB4FF00109FFF7B7F8FFF70BFDFFF70E
:103EE0006BF894F94400401C10B9002084F8440099
:103EF00094F94500401C10B9002084F84500FFF7F4
:103F0000A3F805A901A800F0D7F8F0B92046FEF7FC
:103F1000F2FBA0B104F110000599FFF7ADFA2046BD
:103F2000FEF795FE00F00CFB002885D14FF0805085
:103F300017490860BFF34F8FBFF36F8F7CE72046B0
:103F4000FEF785FE00F0FCFA76E72046FEF77FFEDE
:103F500000F0F6FA0020ADE72E2E5C2E2E5C4D69A7
:103F600064646C6577617265735C46726565525412
:103F70004F535C7372635C71756575652E630000E9
:103F80004572726F723A2025732C2025640D0A0049
:103F900004ED00E02DE9F05F80468A4615461E4696
:103FA00044462CB940F29F3235A13FA0FCF784F97A
:103FB000BAF1000F01D1206C08B9012000E0002007
:103FC00028B94FF468722EA137A0FCF775F9022EBC
:103FD00002D1E06B012801D1012000E0002028B9C6
:103FE00040F2A13226A130A0FCF766F9FFF7DAF81B
:103FF00000BF5021EFF3118081F31188BFF34F8F81
:10400000BFF36F8F00BF0746A06BE16B884201D3FF
:10401000022E2BD194F945B0324651462046FEF788
:1040200090F90BF10100C8B9A06C40B131462046AF
:10403000FEF770FBB8B1B5B10120286013E0606AEB
:1040400008B9012000E0002068B904F1240000F064
:1040500013FA40B13DB10120286004E00BF10100EA
:1040600040B284F845004FF0010901E04FF000092B
:1040700000BF87F3118800BF4846BDE8F09F0000ED
:104080002E2E5C2E2E5C4D6964646C6577617265C2
:10409000735C4672656552544F535C7372635C7116
:1040A000756575652E6300004572726F723A202542
:1040B000732C2025640D0A002DE9F04104460D46BD
:1040C0002CB940F6CB321FA128A0FCF7F5F82DB98A
:1040D00040F6CC321BA125A0FCF7EEF8FEF76CFFF2
:1040E000264807682648006890F8590030B100203B
:1040F0002349096881F8590001261EE02868401C00
:1041000008B9002619E01F4920680968884204D0D0
:104110006068B84201D801260FE06068381A296843
:10412000884209D228686168791A401A28602046B6
:10413000FFF7C6FA002600E00126FEF785FF3046AD
:10414000BDE8F0812E2E5C2E2E5C4D6964646C659A
:1041500077617265735C4672656552544F535C7348
:1041600072635C7461736B732E6300004572726FCF
:10417000723A2025732C2025640D0A0024000020AB
:1041800010000020380000202DE9FF4F85B0804648
:1041900089461746DDE912ABB800FEF7A1FD0646D9
:1041A00056B15C20FEF79CFD04460CB1266304E08A
:1041B0003046FEF785FF00E000247CB10020CDE909
:1041C00000ABCDE902403A4649464046089BFEF71F
:1041D0007DF92046FDF7E0FF012501E04FF0FF35B6
:1041E000284609B0BDE8F08F0549096809B90120E2
:1041F00005E00449096809B9022000E00020704781
:104200002C00002048000020014908687047000089
:10421000240000202DE9F0414FF0000842480068DA
:10422000002873D141480068451C40480560002DB6
:104230001DD13F480068006808B9012000E0002057
:1042400028B940F6D9123BA144A0FCF735F838480C
:104250000768464800683649086044480760444893
:104260000068401C42490860FEF7CEFB00BF414891
:10427000006885423CD300BF2D480068006808B93B
:10428000012000E0002020B14FF0FF3039490860E4
:104290002DE027480068C068C4686668B54202D24D
:1042A0003448066023E0201DFEF73CFEA06A18B1EA
:1042B00004F11800FEF736FE94F82C100120884017
:1042C0002D49096808432C490860E16A01EB810126
:1042D0002A4A02EB8100211DFEF762FE2849E06AAE
:1042E0000968C96A8842C7D34FF00108C4E700BF14
:1042F00023480068C06A00EB8000204951F8200084
:10430000012801D94FF0010805E0FFE71D480068CA
:10431000401C1C4908601C48006808B14FF00108A7
:104320004046BDE8F0810000480000202400002045
:10433000140000202E2E5C2E2E5C4D6964646C658A
:1043400077617265735C4672656552544F535C7356
:1043500072635C7461736B732E6300004572726FDD
:10436000723A2025732C2025640D0A0018000020C5
:10437000380000204000002028000020DC00002041
:1043800010000020300000203400002070B50546E9
:104390002C460026002D4BD026480068844201D1CF
:1043A000012000E0002028B940F6C76222A12CA01D
:1043B000FBF782FF206D28B940F6C9621EA128A034
:1043C000FBF77AFF206D401E2065E16CE06A8842B1
:1043D0002ED0206D60BB201DFEF7A4FD78B9E06AE9
:1043E00000EB8000224951F8200040B994F82C10CD
:1043F000012088401F49096881431E480160E06C24
:10440000E062E06AC0F12000A06194F82C10012065
:10441000884018490968084316490860E16A01EBB9
:104420008101134A02EB8100211DFEF7B9FD01262F
:10443000304670BD100000202E2E5C2E2E5C4D6983
:1044400064646C6577617265735C4672656552542D
:104450004F535C7372635C7461736B732E63000003
:104460004572726F723A2025732C2025640D0A0064
:10447000DC0000202800002070B50646F068C46803
:104480002CB940F661321AA123A0FBF715FF04F105
:104490001800FEF747FD24480068A8B9201DFEF764
:1044A00041FD94F82C1001208840204909680843F8
:1044B0001E490860E16A01EB81011D4A02EB81009F
:1044C000211DFEF76DFD04E004F118011948FEF707
:1044D00067FD1949E06A0968C96A884204D901255B
:1044E00001201649086000E00025284670BD000044
:1044F0002E2E5C2E2E5C4D6964646C65776172654E
:10450000735C4672656552544F535C7372635C749E
:1045100061736B732E6300004572726F723A2025CF
:10452000732C2025640D0A0048000020280000207C
:10453000DC00002084030020100000203400002054
:1045400070B5002400263448006828B94FF4FD6295
:1045500032A13CA0FBF7B0FEFEF72EFD2E4800680E
:10456000401E2D4908600846006800284FD1394890
:10457000006800284BD024E03748C068C46804F1C4
:104580001800FEF7CFFC201DFEF7CCFC94F82C1091
:104590000120884031490968084330490860E16AD0
:1045A00001EB81012E4A02EB8100211DFEF7F8FC90
:1045B0002C49E06A0968C96A884202D301202A4965
:1045C00008602548006808B9012000E000200028A4
:1045D000D2D00CB1FEF718FA2448056865B100BFC7
:1045E000FFF718FE10B101201F4908606D1E002D55
:1045F000F6D100201D4908601B48006838B101262B
:1046000030071B490860BFF34F8FBFF36F8FFEF772
:104610001BFD304670BD0000480000202E2E5C2E91
:104620002E5C4D6964646C6577617265735C46727B
:10463000656552544F535C7372635C7461736B7342
:104640002E6300004572726F723A2025732C20256C
:10465000640D0A00200000208403002028000020B0
:10466000DC0000201000002034000020300000207A
:1046700004ED00E01CB50024FDF7EAFD0B480068DE
:1046800058B10B481F2100234FF48072CDE9001070
:1046900008A10A48FFF778FD04462CB940F233120E
:1046A00007A111A0FBF708FE20461CBD5400002006
:1046B00058000020546D722053766300352C00089A
:1046C0002E2E5C2E2E5C4D6964646C65776172657C
:1046D000735C4672656552544F535C7372635C74CD
:1046E000696D6572732E63004572726F723A202590
:1046F000732C2025640D0A002DE9FF4704460D4662
:1047000016461F46DDF830804FF000092CB94FF4F3
:10471000D37217A120A0FBF7CFFD2348006810B388
:10472000009501960294062D15DAFFF75DFD02282B
:1047300008D10023424669461B480068FFF73EFB4C
:10474000814610E000231A46694617480068FFF7C3
:1047500035FB814607E000233A4669461248006867
:10476000FFF718FC8146484604B0BDE8F08700001A
:104770002E2E5C2E2E5C4D6964646C6577617265CB
:10478000735C4672656552544F535C7372635C741C
:10479000696D6572732E63004572726F723A2025DF
:1047A000732C2025640D0A00540000200000000036
:1047B00000000000010203040607080900000000D1
:1047C00001020304040000080000000000000002D1
:1047D0000001000010000000F84700080000002061
:1047E0009C0000006C010008944800089C00002018
:1047F000B432000088010008000000000000000042
:10480000000000000024F400000000000000000090
:104810000000000000000000000000000000000098
:104820000000000000000000000000000000000088
:104830000000000000000000000000000000000078
:104840000000000000000000000000000000000068
:104850000000000000000000AAAAAAAA00000000B0
:104860000000000000000000000000000000000048
:104870000000000000000000000000000000000038
:104880000000000000000000000000001000000018
:044890000100000023
:0400000508000131BD
:00000001FF
